:100000000C9435000C945D000C945D000C945D0024
:100010000C945D000C945D000C945D000C945D00EC
:100020000C945D000C945D000C945D000C945D00DC
:100030000C945D000C945D000C945D000C945D00CC
:100040000C946F020C945D000C941A010C945D01E9
:100050000C945D000C945D000C945D000C945D00AC
:100060000C945D000C945D00190211241FBECFEFAB
:10007000D8E0DEBFCDBF11E0A0E0B1E0E2E9F6E0FC
:1000800002C005900D92A031B107D9F721E0A0E19F
:10009000B1E001C01D92A33CB207E1F710E0CAE64F
:1000A000D0E004C02297FE010E944303C836D10766
:1000B000C9F70E947B000C941C030C94000040E8DC
:1000C00055E260E070E080E191E00C94980160E01E
:1000D00080E191E00E94DC0060E080E191E00E941C
:1000E000DC006AE080E191E00E94DC0064E680E1EF
:1000F00091E00C94DC000E94B9020E945F00C4E50C
:10010000D1E00E9467002097E1F30E945401F9CFEB
:10011000FC0124853585F901E05CFF4F80819181E8
:10012000329620813181821B930B8F73992708951A
:10013000FC0184859585FC01E05CFF4F4081518185
:100140003296208131814217530741F00190F081AE
:10015000E02DE80FF91F808190E008958FEF9FEF69
:100160000895FC0184859585FC01E05CFF4F40818A
:1001700051813296208131814217530779F0A08155
:10018000B181A80FB91F8C91208131812F5F3F4F22
:100190002F7333273183208390E008958FEF9FEFF3
:1001A0000895FC0181A1882329F0A489B5898C9147
:1001B00086FFFBCF11A20895CF93DF93FC01268524
:1001C0003785D901A05CBF4F8D919C911197019605
:1001D0008F739927E901CE5BDF4F488159818417DE
:1001E0009507D9F30D90BC91A02DA20FB31F6C936E
:1001F000A685B785A05CBF4F11969C938E93A68968
:10020000B7892C9181E090E0078C02C0880F991F7C
:100210000A94E2F7282B2C9381E081A30488F589C6
:10022000E02D80818064808381E090E0DF91CF9138
:10023000089508951F920F920FB60F9211242F93D5
:100240003F934F938F939F93EF93FF938091C000C1
:1002500082FD1CC04091C6008091B6019091B7010B
:1002600001968F7399272091B8013091B9018217B7
:10027000930771F0E091B601F091B701EA58FE4F93
:1002800040839093B7018093B60102C08091C6006D
:10029000FF91EF919F918F914F913F912F910F90EF
:1002A0000FBE0F901F90189580E191E00E9488008A
:1002B000892B11F00C94190108951F920F920FB61B
:1002C0000F9211242F933F938F939F93EF93FF935C
:1002D00020917201309173018091740190917501A8
:1002E0002817390731F48091C1008F7D8093C100B8
:1002F00014C0E0917401F0917501EE5CFE4F208115
:10030000809174019091750101968F739927909354
:100310007501809374012093C600FF91EF919F9126
:100320008F913F912F910F900FBE0F901F901895B6
:10033000CF92DF92EF92FF92CF93DF93EC016A01AD
:100340007B01411581EE580761057105F9F0EC89D3
:10035000FD8981E090E008A002C0880F991F0A94EF
:10036000E2F7808360E079E08DE390E0A7019601F9
:100370000E941F03215031094109510956954795A3
:1003800037952795211580E1380798F0EC89FD898C
:10039000108260E874E88EE190E0A70196010E9467
:1003A0001F03215031094109510956954795379549
:1003B0002795E889F9893083EA89FB89208319A286
:1003C000EE89FF89408181E090E09C010C8C02C0A5
:1003D000220F331F0A94E2F7422B4083EE89FF89F4
:1003E00040819C010D8C02C0220F331F0A94E2F75A
:1003F000422B4083EE89FF8940819C010E8C02C014
:10040000220F331F0A94E2F7422B4083EE89FF89C3
:1004100020810F8C02C0880F991F0A94E2F7809503
:1004200082238083DF91CF91FF90EF90DF90CF9078
:100430000895109213011092120188EE93E0A0E04B
:10044000B0E08093140190931501A0931601B0932E
:10045000170184E091E0909311018093100186E7E9
:1004600091E090931D0180931C0182E391E09093B1
:100470001F0180931E0185EC90E0909321018093F1
:10048000200184EC90E0909323018093220180EC82
:1004900090E0909325018093240181EC90E090936B
:1004A00027018093260182EC90E0909329018093AC
:1004B000280186EC90E090932B0180932A0184E040
:1004C00080932C0183E080932D0187E080932E019F
:1004D00085E080932F0181E08093300108951F9281
:1004E0000F920FB60F9211242F933F938F939F93E8
:1004F000AF93BF938091BB019091BC01A091BD01CE
:10050000B091BE013091BA0123E0230F2D3720F4C2
:100510000196A11DB11D05C026E8230F0296A11D5D
:10052000B11D2093BA018093BB019093BC01A093AD
:10053000BD01B093BE018091BF019091C001A09117
:10054000C101B091C2010196A11DB11D8093BF01EF
:100550009093C001A093C101B093C201BF91AF912C
:100560009F918F913F912F910F900FBE0F901F90F1
:100570001895789484B5826084BD84B5816084BD0B
:1005800085B5826085BD85B5816085BDEEE6F0E00C
:10059000808181608083E1E8F0E010828081826068
:1005A0008083808181608083E0E8F0E080818160E9
:1005B0008083E1EBF0E0808184608083E0EBF0E019
:1005C000808181608083EAE7F0E0808184608083BD
:1005D0008081826080838081816080838081806867
:1005E00080831092C1000895CF92DF92EF92FF9224
:1005F0000F931F93CF93DF936C017A01EB01E60E0B
:10060000F71E00E010E0CE15DF0561F06991D6011C
:10061000ED91FC910190F081E02DC6010995080F44
:10062000191FF1CFC801DF91CF911F910F91FF905A
:10063000EF90DF90CF900895F8940C944703A1E2D7
:100640001A2EAA1BBB1BFD010DC0AA1FBB1FEE1F4C
:10065000FF1FA217B307E407F50720F0A21BB30B97
:10066000E40BF50B661F771F881F991F1A9469F713
:1006700060957095809590959B01AC01BD01CF016F
:100680000895EE0FFF1F0590F491E02D0994F89462
:02069000FFCF9A
:1006920000000000DC00F4028800B1009800D100E4
:00000001FF
