:100000000C9435000C945D000C945D000C945D0024
:100010000C945D000C945D000C945D000C945D00EC
:100020000C945D000C945D000C945D000C945D00DC
:100030000C945D000C945D000C945D000C945D00CC
:100040000C94E8000C945D000C944C020C948F020C
:100050000C945D000C945D000C945D000C945D00AC
:100060000C945D000C945D004B0311241FBECFEF78
:10007000D8E0DEBFCDBF11E0A0E0B1E0ECEEF7E0EC
:1000800002C005900D92A231B107D9F721E0A2E19B
:10009000B1E001C01D92A53CB207E1F710E0CAE64D
:1000A000D0E004C02297FE010E94F003C836D107B9
:1000B000C9F70E94AD010C94C9030C940000DC0147
:1000C000ED91FC910190F081E02D642F099440E8BE
:1000D00054E86EE170E08BE191E00C94CA024F921B
:1000E0005F926F927F928F929F92AF92BF92CF92C8
:1000F000DF92EF92FF92CF93DF9300D000D0CDB785
:10010000DEB78FEF89838A838B838C830E943201D1
:100110006B017C010E9432014B015C018C189D082F
:10012000AE08BF080E9432012B013C018EE00E9404
:1001300090010E9432016B017C01C418D508E608C9
:10014000F708C818D908EA08FB08E0911B01F091EC
:100150001C010280F381E02D44E050E0BE016F5F9E
:100160007F4F8BE191E00995B701A60155276627DE
:1001700077278BE191E00E945F004D2D50E060E019
:1001800070E08BE191E00E945F004E2D50E060E056
:1001900070E08BE191E00E945F004F2D55276627AC
:1001A00077278BE191E00E945F000F900F900F90F6
:1001B0000F90DF91CF91FF90EF90DF90CF90BF90A5
:1001C000AF909F908F907F906F905F904F90089529
:1001D0001F920F920FB60F9211242F933F938F937C
:1001E0009F93AF93BF938091130190911401A091BD
:1001F0001501B09116013091120123E0230F2D3724
:1002000020F40196A11DB11D05C026E8230F02961A
:10021000A11DB11D2093120180931301909314012D
:10022000A0931501B09316018091170190911801C8
:10023000A0911901B0911A010196A11DB11D8093E1
:10024000170190931801A0931901B0931A01BF915F
:10025000AF919F918F913F912F910F900FBE0F9073
:100260001F9018953FB7F89480911701909118014D
:10027000A0911901B0911A0126B5A89B05C02F3F86
:1002800019F00196A11DB11D3FBF6627782F892F58
:100290009A2F620F711D811D911D42E0660F771F1D
:1002A000881F991F4A95D1F70895789484B5826084
:1002B00084BD84B5816084BD85B5826085BD85B50A
:1002C000816085BDEEE6F0E0808181608083E1E8B9
:1002D000F0E01082808182608083808181608083F1
:1002E000E0E8F0E0808181608083E1EBF0E08081F4
:1002F00084608083E0EBF0E0808181608083EAE7C6
:10030000F0E080818460808380818260808380814E
:10031000816080838081806880831092C10008950D
:100320008E3008F08E5087702091000190E4299F54
:1003300090011124822B80937C0080917A0080644C
:1003400080937A0080917A0086FDFCCF80917800BE
:100350002091790090E0922B08950E9455010E940F
:100360006700C6E8D2E00E946F002097E1F30E9488
:100370008602F9CFFC0124853585F901E05CFF4F49
:1003800080819181329620813181821B930B8F7302
:1003900099270895FC0184859585FC01E05CFF4F59
:1003A000408151813296208131814217530741F0BB
:1003B0000190F081E02DE80FF91F808190E0089511
:1003C0008FEF9FEF0895FC0184859585FC01E05C2B
:1003D000FF4F40815181329620813181421753076E
:1003E00079F0A081B181A80FB91F8C912081318152
:1003F0002F5F3F4F2F7333273183208390E0089581
:100400008FEF9FEF0895FC0181A1882329F0A48933
:10041000B5898C9186FFFBCF11A20895CF93DF930E
:10042000FC0126853785D901A05CBF4F8D919C9139
:10043000119701968F739927E901CE5BDF4F4881B1
:10044000598184179507D9F30D90BC91A02DA20F67
:10045000B31F6C93A685B785A05CBF4F11969C9384
:100460008E93A689B7892C9181E090E0078C02C019
:10047000880F991F0A94E2F7282B2C9381E081A31F
:100480000488F589E02D80818064808381E090E09C
:10049000DF91CF91089508951F920F920FB60F929A
:1004A00011242F933F934F938F939F93EF93FF9339
:1004B0008091C00082FD1CC04091C6008091C101A6
:1004C0009091C20101968F7399272091C3013091B9
:1004D000C4018217930771F0E091C101F091C2014C
:1004E000EF57FE4F40839093C2018093C10102C039
:1004F0008091C600FF91EF919F918F914F913F9115
:100500002F910F900FBE0F901F9018958BE191E0E7
:100510000E94BA01892B11F00C944B0208951F928E
:100520000F920FB60F9211242F933F938F939F93A7
:10053000EF93FF9320917D0130917E0180917F01A7
:10054000909180012817390731F48091C1008F7D87
:100550008093C10014C0E0917F01F0918001E35CC1
:10056000FE4F208180917F019091800101968F73D1
:1005700099279093800180937F012093C600FF917B
:10058000EF919F918F913F912F910F900FBE0F9000
:100590001F901895CF92DF92EF92FF92CF93DF9347
:1005A000EC016A017B01411581EE58076105710577
:1005B000F9F0EC89FD8981E090E008A002C0880F85
:1005C000991F0A94E2F7808360E079E08DE390E080
:1005D000A70196010E94CC0321503109410951091C
:1005E0005695479537952795211580E1380798F05E
:1005F000EC89FD89108260E874E88EE190E0A70143
:1006000096010E94CC0321503109410951095695A8
:10061000479537952795E889F9893083EA89FB89D9
:10062000208319A2EE89FF89408181E090E09C013E
:100630000C8C02C0220F331F0A94E2F7422B408336
:10064000EE89FF8940819C010D8C02C0220F331F6F
:100650000A94E2F7422B4083EE89FF8940819C0196
:100660000E8C02C0220F331F0A94E2F7422B408304
:10067000EE89FF8920810F8C02C0880F991F0A9490
:10068000E2F7809582238083DF91CF91FF90EF90F6
:10069000DF90CF90089510921E0110921D0188EEF8
:1006A00093E0A0E0B0E080931F0190932001A0931D
:1006B0002101B093220185E091E090931C01809389
:1006C0001B0181E891E090932801809327018DE33D
:1006D00091E090932A018093290185EC90E090931A
:1006E0002C0180932B0184EC90E090932E01809359
:1006F0002D0180EC90E09093300180932F0181ECEC
:1007000090E0909332018093310182EC90E09093DD
:1007100034018093330186EC90E09093360180930E
:10072000350184E08093370183E08093380187E0CE
:100730008093390185E080933A0181E080933B0109
:100740000895CF92DF92EF92FF920F931F93CF9372
:10075000DF936C017A01EB01E60EF71E00E010E07A
:10076000CE15DF0561F06991D601ED91FC91019004
:10077000F081E02DC6010995080F191FF1CFC801BE
:10078000DF91CF911F910F91FF90EF90DF90CF906D
:100790000895F8940C94F403A1E21A2EAA1BBB1B33
:1007A000FD010DC0AA1FBB1FEE1FFF1FA217B3073D
:1007B000E407F50720F0A21BB30BE40BF50B661F53
:1007C000771F881F991F1A9469F760957095809517
:1007D00090959B01AC01BD01CF010895EE0FFF1F65
:0C07E0000590F491E02D0994F894FFCFEF
:1007EC0001000000000E02A103BA01E301CA0103DB
:0207FC000200F9
:00000001FF
