:100000000C9462000C948A000C948A000C94630196
:100010000C948A000C9492010C948A000C948A002F
:100020000C948A000C948A000C948A000C948A0028
:100030000C948A000C948A000C948A000C948A0018
:100040000C9477040C948A000C9422030C9465039E
:100050000C948A000C9424010C948A000C948A005D
:100060000C948A000C948A00000000070002010032
:100070000003040600000000000000000102040864
:100080001020408001020408102001020408102002
:10009000040404040404040402020202020203032E
:1000A00003030303000000002300260029000000D2
:1000B0000000250028002B0000000000240027007D
:1000C0002A00210411241FBECFEFD8E0DEBFCDBF30
:1000D00011E0A0E0B1E0E2EAFAE002C005900D9282
:1000E000A431B107D9F721E0A4E1B1E001C01D922C
:1000F000A83CB207E1F710E0C4ECD0E004C02297BE
:10010000FE010E944B05C23CD107C9F70E94830241
:100110000C9424050C940000F894EAE7F0E01082B7
:1001200010927B00ACE7B0E08C9180648C938C9152
:1001300080628C93808186608083808180628083EE
:1001400080818860808380818068808380818064F2
:10015000808378940895883038F08E3040F086316E
:1001600048F0E0E0F0E008C0EDE6F0E005C0EBE6C6
:10017000F0E002C0ECE6F0E09081883068F441E005
:1001800050E060E070E0082E04C0440F551F661F69
:10019000771F0A94D2F715C0482F50E09A018E308D
:1001A00018F42850310902C02E50310941E050E0C6
:1001B00060E070E004C0440F551F661F771F2A954A
:1001C000D2F7492B40833BB3883050F021E08E308A
:1001D00008F420E091E001C0990F2A95EAF701C0E8
:1001E00094E0932B9BBB20916800883050F091E005
:1001F0008E3008F490E081E001C0880F9A95EAF70C
:1002000001C084E0822B809368000895CF93C4E0FE
:1002100060E08C2F0E94EB0161E08C2F0E94240291
:100220008C2F0E94AB00CF5FCC3091F7CF91089517
:1002300040E854E86EE170E085E191E00E94A0039F
:100240000E948C000C9406011F920F920FB60F9221
:1002500011242F933F934F935F936F937F938F93CB
:100260009F93AF93BF93EF93FF9390917800E3E058
:10027000F1E09083809179008093020180911401D4
:10028000892B808310921401E0911501F0911601E1
:100290000280F381E02D44E050E060E071E085E110
:1002A00091E00995FF91EF91BF91AF919F918F914F
:1002B0007F916F915F914F913F912F910F900FBE62
:1002C0000F901F9018951F920F920FB60F92112446
:1002D0002F933F934F935F936F937F938F939F934E
:1002E000AF93BF93CF93EF93FF93C8E08C2F0E94FF
:1002F0005A02892B11F4C0931401CF5FCC30B1F7AF
:10030000FF91EF91CF91BF91AF919F918F917F918D
:100310006F915F914F913F912F910F900FBE0F9072
:100320001F9018951F920F920FB60F9211242F93C2
:100330003F934F935F936F937F938F939F93AF936D
:10034000BF93CF93EF93FF93C4E08C2F0E945A0288
:10035000892B11F4C0931401CF5FC830B1F7FF911E
:10036000EF91CF91BF91AF919F918F917F916F91BD
:100370005F914F913F912F910F900FBE0F901F9063
:1003800018950895833081F028F4813099F08230F7
:10039000A1F008958630A9F08730B9F08430D1F407
:1003A000809180008F7D03C0809180008F77809343
:1003B0008000089584B58F7702C084B58F7D84BD99
:1003C00008958091B0008F7703C08091B0008F7D39
:1003D0008093B0000895CF93DF9390E0FC01E45840
:1003E000FF4F2491FC01E057FF4F8491882349F18E
:1003F00090E0880F991FFC01E854FF4FA591B4913C
:1004000082559F4FFC01C591D4919FB7611108C0DF
:10041000F8948C91209582238C93888182230AC042
:10042000623051F4F8948C91322F309583238C9361
:100430008881822B888304C0F8948C91822B8C93C2
:100440009FBFDF91CF9108950F931F93CF93DF93B9
:100450001F92CDB7DEB7282F30E0F901E859FF4FE2
:100460008491F901E458FF4F1491F901E057FF4FCF
:1004700004910023C9F0882321F069830E94C201FE
:100480006981E02FF0E0EE0FFF1FE255FF4FA591CD
:10049000B4919FB7F8948C91611103C0109581239A
:1004A00001C0812B8C939FBF0F90DF91CF911F9143
:1004B0000F910895CF93DF93282F30E0F901E85989
:1004C000FF4F8491F901E458FF4FD491F901E057AF
:1004D000FF4FC491CC2391F081110E94C201EC2FF7
:1004E000F0E0EE0FFF1FEC55FF4FA591B4912C915A
:1004F0002D2381E090E021F480E002C080E090E0D4
:10050000DF91CF9108950E94C1040E941801CCE5AB
:10051000D3E00E94C1012097E1F30E945C03F9CF70
:10052000FC0124853585F901E05CFF4F80819181D4
:10053000329620813181821B930B8F739927089506
:10054000FC0184859585FC01E05CFF4F4081518171
:100550003296208131814217530741F00190F0819A
:10056000E02DE80FF91F808190E008958FEF9FEF55
:100570000895FC0184859585FC01E05CFF4F408176
:1005800051813296208131814217530779F0A08141
:10059000B181A80FB91F8C91208131812F5F3F4F0E
:1005A0002F7333273183208390E008958FEF9FEFDF
:1005B0000895FC0181A1882329F0A489B5898C9133
:1005C00086FFFBCF11A20895CF93DF93FC01268510
:1005D0003785D901A05CBF4F8D919C9111970196F1
:1005E0008F739927E901CE5BDF4F488159818417CA
:1005F0009507D9F30D90BC91A02DA20FB31F6C935A
:10060000A685B785A05CBF4F11969C938E93A68953
:10061000B7892C9181E090E0078C02C0880F991F68
:100620000A94E2F7282B2C9381E081A30488F589B2
:10063000E02D80818064808381E090E0DF91CF9124
:10064000089508951F920F920FB60F9211242F93C1
:100650003F934F938F939F93EF93FF938091C000AD
:1006600082FD1CC04091C6008091BB019091BC01ED
:1006700001968F7399272091BD013091BE01821799
:10068000930771F0E091BB01F091BC01E558FE4F7A
:1006900040839093BC018093BB0102C08091C6004F
:1006A000FF91EF919F918F914F913F912F910F90DB
:1006B0000FBE0F901F90189585E191E00E94900267
:1006C000892B11F00C94210308951F920F920FB6FD
:1006D0000F9211242F933F938F939F93EF93FF9348
:1006E00020917701309178018091790190917A0180
:1006F0002817390731F48091C1008F7D8093C100A4
:1007000014C0E0917901F0917A01E95CFE4F2081FB
:100710008091790190917A0101968F739927909336
:100720007A01809379012093C600FF91EF919F9108
:100730008F913F912F910F900FBE0F901F901895A2
:10074000CF92DF92EF92FF92CF93DF93EC016A0199
:100750007B01411581EE580761057105F9F0EC89BF
:10076000FD8981E090E008A002C0880F991F0A94DB
:10077000E2F7808360E079E08DE390E0A7019601E5
:100780000E94270521503109410951095695479585
:1007900037952795211580E1380798F0EC89FD8978
:1007A000108260E874E88EE190E0A70196010E9453
:1007B000270521503109410951095695479537952B
:1007C0002795E889F9893083EA89FB89208319A272
:1007D000EE89FF89408181E090E09C010C8C02C091
:1007E000220F331F0A94E2F7422B4083EE89FF89E0
:1007F00040819C010D8C02C0220F331F0A94E2F746
:10080000422B4083EE89FF8940819C010E8C02C0FF
:10081000220F331F0A94E2F7422B4083EE89FF89AF
:1008200020810F8C02C0880F991F0A94E2F78095EF
:1008300082238083DF91CF91FF90EF90DF90CF9064
:100840000895109218011092170188EE93E0A0E02D
:10085000B0E08093190190931A01A0931B01B0930B
:100860001C0188E091E090931601809315018BE7BD
:1008700091E0909322018093210187E391E090938E
:1008800024018093230185EC90E0909326018093CE
:10089000250184EC90E0909328018093270180EC5F
:1008A00090E090932A018093290181EC90E090934D
:1008B0002C0180932B0182EC90E090932E01809389
:1008C0002D0186EC90E09093300180932F0184E01D
:1008D0008093310183E08093320187E0809333017C
:1008E00085E08093340181E08093350108951F9263
:1008F0000F920FB60F9211242F933F938F939F93D4
:10090000AF93BF938091C0019091C101A091C201AA
:10091000B091C3013091BF0123E0230F2D3720F4A4
:100920000196A11DB11D05C026E8230F0296A11D49
:10093000B11D2093BF018093C0019093C101A0938A
:10094000C201B093C3018091C4019091C501A091EF
:10095000C601B091C7010196A11DB11D8093C401CC
:100960009093C501A093C601B093C701BF91AF9109
:100970009F918F913F912F910F900FBE0F901F90DD
:100980001895789484B5826084BD84B5816084BDF7
:1009900085B5826085BD85B5816085BDEEE6F0E0F8
:1009A000808181608083E1E8F0E010828081826054
:1009B0008083808181608083E0E8F0E080818160D5
:1009C0008083E1EBF0E0808184608083E0EBF0E005
:1009D000808181608083EAE7F0E0808184608083A9
:1009E0008081826080838081816080838081806853
:1009F00080831092C1000895CF92DF92EF92FF9210
:100A00000F931F93CF93DF936C017A01EB01E60EF6
:100A1000F71E00E010E0CE15DF0561F06991D60108
:100A2000ED91FC910190F081E02DC6010995080F30
:100A3000191FF1CFC801DF91CF911F910F91FF9046
:100A4000EF90DF90CF900895F8940C944F05A1E2B9
:100A50001A2EAA1BBB1BFD010DC0AA1FBB1FEE1F38
:100A6000FF1FA217B307E407F50720F0A21BB30B83
:100A7000E40BF50B661F771F881F991F1A9469F7FF
:100A800060957095809590959B01AC01BD01CF015B
:100A90000895EE0FFF1F0590F491E02D0994F8944E
:020AA000FFCF86
:100AA200FFFF010000000000E402FC049002B90212
:040AB200A002D902C3
:00000001FF
