:100000000C9435000C945D000C945D000C945D0024
:100010000C945D000C945D000C945D000C945D00EC
:100020000C945D000C945D000C945D000C945D00DC
:100030000C945D000C945D000C945D000C945D00CC
:100040000C9497020C945D000C9442010C94850171
:100050000C945D000C945D000C945D000C945D00AC
:100060000C945D000C945D00410211241FBECFEF83
:10007000D8E0DEBFCDBF11E0A0E0B1E0E2EEF6E0F7
:1000800002C005900D92A631B107D9F721E0A6E193
:10009000B1E001C01D92A93CB207E1F710E0CAE649
:1000A000D0E004C02297FE010E946B03C836D1073E
:1000B000C9F70E94A3000C9444030C94000040E88C
:1000C00054E86EE170E086E191E00C94C0018EE0AE
:1000D0000E948600282F21712295220F220F207C5A
:1000E00020930201969587959695879580930301B5
:1000F000E0911601F09117010280F381E02D44E0B8
:1001000050E060E071E086E191E009948E3008F003
:100110008E5087702091050190E4299F9001112451
:10012000822B80937C0080917A00806480937A0097
:1001300080917A0086FDFCCF809178002091790033
:1001400090E0922B08950E94E1020E945F00CCE7AC
:10015000D1E00E9467002097E1F30E947C01F9CF73
:10016000FC0124853585F901E05CFF4F8081918198
:10017000329620813181821B930B8F7399270895CA
:10018000FC0184859585FC01E05CFF4F4081518135
:100190003296208131814217530741F00190F0815E
:1001A000E02DE80FF91F808190E008958FEF9FEF19
:1001B0000895FC0184859585FC01E05CFF4F40813A
:1001C00051813296208131814217530779F0A08105
:1001D000B181A80FB91F8C91208131812F5F3F4FD2
:1001E0002F7333273183208390E008958FEF9FEFA3
:1001F0000895FC0181A1882329F0A489B5898C91F7
:1002000086FFFBCF11A20895CF93DF93FC012685D3
:100210003785D901A05CBF4F8D919C9111970196B4
:100220008F739927E901CE5BDF4F4881598184178D
:100230009507D9F30D90BC91A02DA20FB31F6C931D
:10024000A685B785A05CBF4F11969C938E93A68917
:10025000B7892C9181E090E0078C02C0880F991F2C
:100260000A94E2F7282B2C9381E081A30488F58976
:10027000E02D80818064808381E090E0DF91CF91E8
:10028000089508951F920F920FB60F9211242F9385
:100290003F934F938F939F93EF93FF938091C00071
:1002A00082FD1CC04091C6008091BC019091BD01AF
:1002B00001968F7399272091BE013091BF0182175B
:1002C000930771F0E091BC01F091BD01E458FE4F3D
:1002D00040839093BD018093BC0102C08091C60011
:1002E000FF91EF919F918F914F913F912F910F909F
:1002F0000FBE0F901F90189586E191E00E94B0000C
:10030000892B11F00C94410108951F920F920FB6A2
:100310000F9211242F933F938F939F93EF93FF930B
:10032000209178013091790180917A0190917B013F
:100330002817390731F48091C1008F7D8093C10067
:1003400014C0E0917A01F0917B01E85CFE4F2081BE
:1003500080917A0190917B0101968F7399279093F8
:100360007B0180937A012093C600FF91EF919F91CA
:100370008F913F912F910F900FBE0F901F90189566
:10038000CF92DF92EF92FF92CF93DF93EC016A015D
:100390007B01411581EE580761057105F9F0EC8983
:1003A000FD8981E090E008A002C0880F991F0A949F
:1003B000E2F7808360E079E08DE390E0A7019601A9
:1003C0000E9447032150310941095109569547952B
:1003D00037952795211580E1380798F0EC89FD893C
:1003E000108260E874E88EE190E0A70196010E9417
:1003F00047032150310941095109569547953795D1
:100400002795E889F9893083EA89FB89208319A235
:10041000EE89FF89408181E090E09C010C8C02C054
:10042000220F331F0A94E2F7422B4083EE89FF89A3
:1004300040819C010D8C02C0220F331F0A94E2F709
:10044000422B4083EE89FF8940819C010E8C02C0C3
:10045000220F331F0A94E2F7422B4083EE89FF8973
:1004600020810F8C02C0880F991F0A94E2F78095B3
:1004700082238083DF91CF91FF90EF90DF90CF9028
:100480000895109219011092180188EE93E0A0E0EF
:10049000B0E080931A0190931B01A0931C01B093CC
:1004A0001D018AE091E090931701809316018CE77B
:1004B00091E0909323018093220188E391E090934F
:1004C00025018093240185EC90E09093270180938F
:1004D000260184EC90E0909329018093280180EC20
:1004E00090E090932B0180932A0181EC90E090930F
:1004F0002D0180932C0182EC90E090932F0180934A
:100500002E0186EC90E0909331018093300184E0DD
:100510008093320183E08093330187E0809334013C
:1005200085E08093350181E08093360108951F9224
:100530000F920FB60F9211242F933F938F939F9397
:10054000AF93BF938091C1019091C201A091C3016B
:10055000B091C4013091C00123E0230F2D3720F466
:100560000196A11DB11D05C026E8230F0296A11D0D
:10057000B11D2093C0018093C1019093C201A0934B
:10058000C301B093C4018091C5019091C601A091AF
:10059000C701B091C8010196A11DB11D8093C5018D
:1005A0009093C601A093C701B093C801BF91AF91CA
:1005B0009F918F913F912F910F900FBE0F901F90A1
:1005C0001895789484B5826084BD84B5816084BDBB
:1005D00085B5826085BD85B5816085BDEEE6F0E0BC
:1005E000808181608083E1E8F0E010828081826018
:1005F0008083808181608083E0E8F0E08081816099
:100600008083E1EBF0E0808184608083E0EBF0E0C8
:10061000808181608083EAE7F0E08081846080836C
:100620008081826080838081816080838081806816
:1006300080831092C1000895CF92DF92EF92FF92D3
:100640000F931F93CF93DF936C017A01EB01E60EBA
:10065000F71E00E010E0CE15DF0561F06991D601CC
:10066000ED91FC910190F081E02DC6010995080FF4
:10067000191FF1CFC801DF91CF911F910F91FF900A
:10068000EF90DF90CF900895F8940C946F03A1E25F
:100690001A2EAA1BBB1BFD010DC0AA1FBB1FEE1FFC
:1006A000FF1FA217B307E407F50720F0A21BB30B47
:1006B000E40BF50B661F771F881F991F1A9469F7C3
:1006C00060957095809590959B01AC01BD01CF011F
:1006D0000895EE0FFF1F0590F491E02D0994F89412
:0206E000FFCF4A
:1006E200FFFF000000010000000004011C03B00035
:0606F200D900C000F90070
:00000001FF
