:100000000C9453000C947B000C947B000C947B00AC
:100010000C947B000C947B000C947B000C947B0074
:100020000C947B000C947B000C947B000C94BF0020
:100030000C947B000C947B000C9400010C947B00CE
:100040000C9475030C947B000C9420020C946302B6
:100050000C947B000C947B000C947B000C947B0034
:100060000C947B000C947B0001020408102040805B
:1000700001020408102001020408102004040404F2
:100080000404040402020202020203030303030342
:1000900000000000250028002B00000000002400C4
:1000A00027002A001F0311241FBECFEFD8E0DEBFB8
:1000B000CDBF11E0A0E0B1E0EEE9F8E002C00590AC
:1000C0000D92A431B107D9F721E0A4E1B1E001C05C
:1000D0001D92A73CB207E1F710E0C6EAD0E004C0E9
:1000E0002297FE010E944904C43AD107C9F70E9431
:1000F00081010C9422040C940000DC01ED91FC9130
:100100000190F081E02D0994F89410928000E1E8CC
:10011000F0E0108210928500109284008FEF90E042
:10012000909389008093880080818860808380819B
:1001300083608083EFE6F0E080818260808314BC7E
:1001400015BC16BC8FEF87BD84B5826084BD85B5B4
:10015000836085BDEEE6F0E08081826080837894E4
:10016000089540E854E86EE170E084E191E00E9477
:100170009E020E94840060E08EE00C9448011F9271
:100180000F920FB60F9211242F933F934F935F93CB
:100190006F937F938F939F93AF93BF93CF93DF938F
:1001A000EF93FF93C0910001D09101016FEF70E0D8
:1001B00084E191E00E947D006FEF70E084E191E0C6
:1001C0000E947D00E0911401F09115010190F081F1
:1001D000E02D6C2F84E191E00995FF91EF91DF9183
:1001E000CF91BF91AF919F918F917F916F915F91CF
:1001F0004F913F912F910F900FBE0F901F90189528
:100200001F920F920FB60F9211242F933F934F938B
:100210005F936F937F938F939F93AF93BF93EF936E
:10022000FF9378948EE00E942B01909301018093BC
:100230000001FF91EF91BF91AF919F918F917F91BD
:100240006F915F914F913F912F910F900FBE0F9043
:100250001F90189508958E3008F08E508770209169
:10026000020190E4299F90011124822B80937C004D
:1002700080917A00806480937A0080917A0086FD74
:10028000FCCF809178002091790090E0922B089526
:10029000CF93DF9390E0FC01E859FF4F2491FC01DC
:1002A000E458FF4F8491882349F190E0880F991F0B
:1002B000FC01E656FF4FA591B49180579F4FFC017A
:1002C000C591D4919FB7611108C0F8948C91209585
:1002D00082238C93888182230AC0623051F4F8947F
:1002E0008C91322F309583238C938881822B888345
:1002F00004C0F8948C91822B8C939FBFDF91CF9197
:1003000008950E94BF030E94B100CAE5D2E00E9496
:100310002A012097E1F30E945A02F9CFFC012485BB
:100320003585F901E05CFF4F808191813296208113
:100330003181821B930B8F7399270895FC0184856B
:100340009585FC01E05CFF4F408151813296208110
:1003500031814217530741F00190F081E02DE80F01
:10036000F91F808190E008958FEF9FEF0895FC01C1
:1003700084859585FC01E05CFF4F40815181329678
:10038000208131814217530779F0A081B181A80FF4
:10039000B91F8C91208131812F5F3F4F2F733327FD
:1003A0003183208390E008958FEF9FEF0895FC0143
:1003B00081A1882329F0A489B5898C9186FFFBCF80
:1003C00011A20895CF93DF93FC0126853785D901CB
:1003D000A05CBF4F8D919C91119701968F739927C7
:1003E000E901CE5BDF4F4881598184179507D9F326
:1003F0000D90BC91A02DA20FB31F6C93A685B7855D
:10040000A05CBF4F11969C938E93A689B7892C91BF
:1004100081E090E0078C02C0880F991F0A94E2F7F0
:10042000282B2C9381E081A30488F589E02D80811D
:100430008064808381E090E0DF91CF9108950895FA
:100440001F920F920FB60F9211242F933F934F9349
:100450008F939F93EF93FF938091C00082FD1CC008
:100460004091C6008091BA019091BB0101968F73B3
:1004700099272091BC013091BD018217930771F03B
:10048000E091BA01F091BB01E658FE4F4083909392
:10049000BB018093BA0102C08091C600FF91EF9129
:1004A0009F918F914F913F912F910F900FBE0F9081
:1004B0001F90189584E191E00E948E01892B11F024
:1004C0000C941F0208951F920F920FB60F921124E1
:1004D0002F933F938F939F93EF93FF9320917601F8
:1004E000309177018091780190917901281739072F
:1004F00031F48091C1008F7D8093C10014C0E091E0
:100500007801F0917901EA5CFE4F208180917801B9
:100510009091790101968F73992790937901809337
:1005200078012093C600FF91EF919F918F913F91A9
:100530002F910F900FBE0F901F901895CF92DF92C2
:10054000EF92FF92CF93DF93EC016A017B0141159B
:1005500081EE580761057105F9F0EC89FD8981E0AC
:1005600090E008A002C0880F991F0A94E2F78083E8
:1005700060E079E08DE390E0A70196010E942504F8
:1005800021503109410951095695479537952795CD
:10059000211580E1380798F0EC89FD89108260E828
:1005A00074E88EE190E0A70196010E942504215095
:1005B0003109410951095695479537952795E8899D
:1005C000F9893083EA89FB89208319A2EE89FF89A2
:1005D000408181E090E09C010C8C02C0220F331F0F
:1005E0000A94E2F7422B4083EE89FF8940819C0107
:1005F0000D8C02C0220F331F0A94E2F7422B408376
:10060000EE89FF8940819C010E8C02C0220F331FAE
:100610000A94E2F7422B4083EE89FF8920810F8CF8
:1006200002C0880F991F0A94E2F780958223808385
:10063000DF91CF91FF90EF90DF90CF9008951092CF
:1006400017011092160188EE93E0A0E0B0E08093CD
:10065000180190931901A0931A01B0931B0187E030
:1006600091E090931501809314018AE791E09093B3
:1006700021018093200186E391E0909323018093F0
:10068000220185EC90E0909325018093240184EC75
:1006900090E0909327018093260180EC90E0909366
:1006A00029018093280181EC90E090932B018093A5
:1006B0002A0182EC90E090932D0180932C0186EC2E
:1006C00090E090932F0180932E0184E0809330017D
:1006D00083E08093310187E08093320185E080934D
:1006E000330181E08093340108951F920F920FB679
:1006F0000F9211242F933F938F939F93AF93BF93A8
:100700008091BF019091C001A091C101B091C2013F
:100710003091BE0123E0230F2D3720F40196A11D57
:10072000B11D05C026E8230F0296A11DB11D20931F
:10073000BE018093BF019093C001A093C101B0930B
:10074000C2018091C3019091C401A091C501B091F3
:10075000C6010196A11DB11D8093C3019093C401F0
:10076000A093C501B093C601BF91AF919F918F91A6
:100770003F912F910F900FBE0F901F901895789476
:1007800084B5826084BD84B5816084BD85B5826096
:1007900085BD85B5816085BDEEE6F0E08081816034
:1007A0008083E1E8F0E01082808182608083808134
:1007B00081608083E0E8F0E0808181608083E1EB0C
:1007C000F0E0808184608083E0EBF0E080818160F4
:1007D0008083EAE7F0E080818460808380818260AA
:1007E0008083808181608083808180688083109293
:1007F000C1000895CF92DF92EF92FF920F931F9363
:10080000CF93DF936C017A01EB01E60EF71E00E057
:1008100010E0CE15DF0561F06991D601ED91FC91F4
:100820000190F081E02DC6010995080F191FF1CF45
:10083000C801DF91CF911F910F91FF90EF90DF9052
:10084000CF900895F8940C944D04A1E21A2EAA1B9F
:10085000BB1BFD010DC0AA1FBB1FEE1FFF1FA21770
:10086000B307E407F50720F0A21BB30BE40BF50B6D
:10087000661F771F881F991F1A9469F760957095F6
:10088000809590959B01AC01BD01CF010895EE0FBD
:0E089000FF1F0590F491E02D0994F894FFCF1E
:10089E0064000100000000E201FA038E01B7019E20
:0408AE0001D701006D
:00000001FF
