:100000000C9462000C948A000C948A000C948A0070
:100010000C948A000C948A000C948A000C948A0038
:100020000C948A000C948A000C948A000C94980119
:100030000C948A000C948A000C9470010C948A0031
:100040000C94A4040C948A000C944F030C94920317
:100050000C948A000C948A000C948A000C948A00F8
:100060000C948A000C948A00000000070002010032
:100070000003040600000000000000000102040864
:100080001020408001020408102001020408102002
:10009000040404040404040402020202020203032E
:1000A00003030303000000002300260029000000D2
:1000B0000000250028002B0000000000240027007D
:1000C0002A004E0411241FBECFEFD8E0DEBFCDBF03
:1000D00011E0A0E0B1E0EAE4FDE002C005900D927D
:1000E000AE32B107D9F721E0AEE2B1E001C01D9216
:1000F000A93FB207E1F710E0C4ECD0E004C02297BA
:10010000FE010E949F06C23CD107C9F70E94B002BF
:100110000C9478060C940000FC01768365830895A6
:10012000CF93DF93EC018F819885019698878F8319
:100130008C810E948502892B39F42F8138858A8130
:100140009B818217930710F080E003C018861F82FE
:1001500081E0DF91CF910895CF93FC01C62F2BE072
:1001600031E03183208328EE33E03383228310860D
:100170001782648360E08C2F0E94160261E08C2F4E
:10018000CF910C944F02CF93DF93EC01AD81BE81F0
:10019000ED91FC9111970190F081E02D6C81CD01E2
:1001A000DF91CF910994FC01618721E024830895B8
:1001B000FC01778360878481A0914201B091430163
:1001C000BF016B5F7F4F882341F014821296ED913F
:1001D000FC91139745E050E006C01296ED91FC911A
:1001E000139744E050E082E491E00994FC0183E13C
:1001F00091E0918380838BE191E0938382831482E9
:100200008FEF86838583089502970C94D800FC01B4
:10021000208131812F5F3F4F318320830895FF92EA
:100220000F931F93CF93DF9340E854E86EE170E0A3
:1002300082E491E00E94CD0314BC15BC16BC8FEF84
:1002400087BD84B5826084BD85B5856085BD10920B
:10025000800010928100109285001092840010920C
:1002600089001092880080918000826080938000D5
:10027000809181008460809381008AE090E00E94F8
:10028000AE02EC010E94F600D0932F01C0932E0124
:1002900002E311E084E0F82E89E090E00E94AE02D3
:1002A000EC016F2D0E94AC00F801C193D1938F0136
:1002B000E881F98160912E0170912F010280F38114
:1002C000E02DCE010995F394FCE0FF12E5CF60E04C
:1002D0008EE0DF91CF911F910F91FF900C94160249
:1002E0001F920F920FB60F9211242F933F934F93AB
:1002F0005F936F937F938F939F93AF93BF93EF938E
:10030000FF9380913001909131010E940701FF918C
:10031000EF91BF91AF919F918F917F916F915F917D
:100320004F913F912F910F900FBE0F901F901895F6
:100330001F920F920FB60F9211240F900FBE0F90C5
:100340001F901895CF93DF93E0912E01F0912F012C
:100350000190F081E02DC281D3818EE00E94D00116
:10036000BC0180912E0190912F01FE010995C2E3FD
:10037000D1E088819981DC01ED91FC910190F081BF
:10038000E02D0995882321F0888199810E94C3007E
:100390002296B1E0C234DB0761F7DF91CF91089577
:1003A0008E3008F08E5087702091000190E4299FD4
:1003B00090011124822B80937C0080917A008064CC
:1003C00080937A0080917A0086FDFCCF809178003E
:1003D0002091790090E0922B0895833081F028F4E9
:1003E000813099F08230A1F008958630A9F08730ED
:1003F000B9F08430D1F4809180008F7D03C080916A
:1004000080008F7780938000089584B58F7702C035
:1004100084B58F7D84BD08958091B0008F7703C02F
:100420008091B0008F7D8093B0000895CF93DF93CB
:1004300090E0FC01E458FF4F2491FC01E057FF4F8E
:100440008491882349F190E0880F991FFC01E854BA
:10045000FF4FA591B49182559F4FFC01C591D49156
:100460009FB7611108C0F8948C91209582238C93DA
:10047000888182230AC0623051F4F8948C91322F23
:10048000309583238C938881822B888304C0F894D1
:100490008C91822B8C939FBFDF91CF9108950F9306
:1004A0001F93CF93DF931F92CDB7DEB7282F30E095
:1004B000F901E859FF4F8491F901E458FF4F149175
:1004C000F901E057FF4F04910023C9F0882321F080
:1004D00069830E94ED016981E02FF0E0EE0FFF1FBC
:1004E000E255FF4FA591B4919FB7F8948C9161119B
:1004F00003C01095812301C0812B8C939FBF0F9067
:10050000DF91CF911F910F910895CF93DF93282F03
:1005100030E0F901E859FF4F8491F901E458FF4FA9
:10052000D491F901E057FF4FC491CC2391F0811190
:100530000E94ED01EC2FF0E0EE0FFF1FEC55FF4F96
:10054000A591B4912C912D2381E090E021F480E0DD
:1005500002C080E090E0DF91CF9108950C942905CE
:100560000E94EE040E940F01C9E8D3E00E94A2019C
:100570002097E1F30E948903F9CFFC01248535859A
:10058000F901E05CFF4F80819181329620813181B9
:10059000821B930B8F7399270895FC0184859585A1
:1005A000FC01E05CFF4F4081518132962081318116
:1005B0004217530741F00190F081E02DE80FF91F39
:1005C000808190E008958FEF9FEF0895FC0184856E
:1005D0009585FC01E05CFF4F40815181329620817E
:1005E00031814217530779F0A081B181A80FB91F5B
:1005F0008C91208131812F5F3F4F2F7333273183BF
:10060000208390E008958FEF9FEF0895FC0181A172
:10061000882329F0A489B5898C9186FFFBCF11A28C
:100620000895CF93DF93FC0126853785D901A05C1F
:10063000BF4F8D919C91119701968F739927E90176
:10064000CE5BDF4F4881598184179507D9F30D9010
:10065000BC91A02DA20FB31F6C93A685B785A05C9B
:10066000BF4F11969C938E93A689B7892C9181E0F8
:1006700090E0078C02C0880F991F0A94E2F7282B9C
:100680002C9381E081A30488F589E02D808180642A
:10069000808381E090E0DF91CF91089508951F92CB
:1006A0000F920FB60F9211242F933F934F938F9376
:1006B0009F93EF93FF938091C00082FD1CC04091F7
:1006C000C6008091E8019091E90101968F73992706
:1006D0002091EA013091EB018217930771F0E091CC
:1006E000E801F091E901E855FE4F40839093E9015C
:1006F0008093E80102C08091C600FF91EF919F9125
:100700008F914F913F912F910F900FBE0F901F909F
:10071000189582E491E00E94BD02892B11F00C949F
:100720004E0308951F920F920FB60F9211242F932C
:100730003F938F939F93EF93FF932091A401309168
:10074000A5018091A6019091A7012817390731F4DE
:100750008091C1008F7D8093C10014C0E091A601FB
:10076000F091A701EC59FE4F20818091A601909154
:10077000A70101968F7399279093A7018093A601F3
:100780002093C600FF91EF919F918F913F912F9100
:100790000F900FBE0F901F901895CF92DF92EF929F
:1007A000FF92CF93DF93EC016A017B01411581EE4B
:1007B000580761057105F9F0EC89FD8981E090E049
:1007C00008A002C0880F991F0A94E2F7808360E0B6
:1007D00079E08DE390E0A70196010E947B0621500D
:1007E00031094109510956954795379527952115A6
:1007F00080E1380798F0EC89FD89108260E874E8A0
:100800008EE190E0A70196010E947B0621503109FC
:10081000410951095695479537952795E889F989F2
:100820003083EA89FB89208319A2EE89FF89408100
:1008300081E090E09C010C8C02C0220F331F0A94CF
:10084000E2F7422B4083EE89FF8940819C010D8CA9
:1008500002C0220F331F0A94E2F7422B4083EE8935
:10086000FF8940819C010E8C02C0220F331F0A9425
:10087000E2F7422B4083EE89FF8920810F8C02C072
:10088000880F991F0A94E2F7809582238083DF9175
:10089000CF91FF90EF90DF90CF9008951092450197
:1008A0001092440188EE93E0A0E0B0E0809346010E
:1008B00090934701A0934801B093490181E291E0F0
:1008C000909343018093420188EA91E090934F0115
:1008D00080934E0184E691E0909351018093500102
:1008E00085EC90E0909353018093520184EC90E06A
:1008F000909355018093540180EC90E090935701C0
:100900008093560181EC90E09093590180935801B7
:1009100082EC90E090935B0180935A0186EC90E02A
:1009200090935D0180935C0184E080935E0183E09D
:1009300080935F0187E08093600185E0809361018F
:1009400081E08093620108951F920F920FB60F927B
:1009500011242F933F938F939F93AF93BF938091D5
:10096000ED019091EE01A091EF01B091F001309175
:10097000EC0123E0230F2D3720F40196A11DB11DBA
:1009800005C026E8230F0296A11DB11D2093EC019E
:100990008093ED019093EE01A093EF01B093F001ED
:1009A0008091F1019091F201A091F301B091F401D5
:1009B0000196A11DB11D8093F1019093F201A093C6
:1009C000F301B093F401BF91AF919F918F913F914B
:1009D0002F910F900FBE0F901F901895789484B5AB
:1009E000826084BD84B5816084BD85B5826085BD2B
:1009F00085B5816085BDEEE6F0E080818160808311
:100A0000E1E8F0E0108280818260808380818160F3
:100A10008083E0E8F0E0808181608083E1EBF0E0BA
:100A2000808184608083E0EBF0E08081816080835E
:100A3000EAE7F0E080818460808380818260808347
:100A40008081816080838081806880831092C10072
:100A50000895CF93DF938230910510F482E090E007
:100A6000E091F701F091F80120E030E0A0E0B0E083
:100A7000309739F14081518148175907B8F048172C
:100A8000590771F482819381109729F013969C93F2
:100A90008E9312972CC09093F8018093F70127C092
:100AA0002115310531F04217530718F0A901DB0178
:100AB00001C0EF019A01BD01DF010280F381E02D49
:100AC000D7CF21153105F9F0281B390B243031051A
:100AD00080F48A819B816115710521F0FB0193836C
:100AE000828304C09093F8018093F701FE0132964F
:100AF00044C0FE01E20FF31F81939193225031090C
:100B0000398328833AC02091F5013091F601232BD7
:100B100041F420910301309104013093F6012093B8
:100B2000F50120910101309102012115310541F4B7
:100B30002DB73EB74091050150910601241B350B9E
:100B4000E091F501F091F601E217F307A0F42E1BF6
:100B50003F0B2817390778F0AC014E5F5F4F241721
:100B6000350748F04E0F5F1F5093F6014093F50193
:100B70008193919302C0E0E0F0E0CF01DF91CF914B
:100B80000895CF93DF93009709F487C0FC01329753
:100B900013821282C091F701D091F801209781F45D
:100BA00020813181280F391F8091F5019091F60144
:100BB0008217930779F5F093F601E093F5016DC084
:100BC000DE0120E030E0AE17BF0750F412964D91E1
:100BD0005C9113979D014115510509F1DA01F3CF9D
:100BE000B383A28340815181840F951F8A179B078D
:100BF00071F48D919C911197840F951F02969183AA
:100C0000808312968D919C911397938382832115F3
:100C1000310529F4F093F801E093F7013EC0D901C2
:100C20001396FC93EE9312974D915D91A40FB51F0F
:100C3000EA17FB0779F480819181840F951F029652
:100C4000D90111969C938E938281938113969C93E4
:100C50008E931297E0E0F0E08A819B81009719F073
:100C6000FE01EC01F9CFCE01029628813981820F75
:100C7000931F2091F5013091F6012817390769F487
:100C8000309729F41092F8011092F70102C01382F4
:100C90001282D093F601C093F501DF91CF910895B0
:100CA000CF92DF92EF92FF920F931F93CF93DF9338
:100CB0006C017A01EB01E60EF71E00E010E0CE15A4
:100CC000DF0561F06991D601ED91FC910190F08111
:100CD000E02DC6010995080F191FF1CFC801DF915A
:100CE000CF911F910F91FF90EF90DF90CF900895DB
:100CF000F8940C94A306A1E21A2EAA1BBB1BFD01BB
:100D00000DC0AA1FBB1FEE1FFF1FA217B307E407EA
:100D1000F50720F0A21BB30BE40BF50B661F771F42
:100D2000881F991F1A9469F7609570958095909522
:100D30009B01AC01BD01CF010895EE0FFF1F05908F
:0A0D4000F491E02D0994F894FFCF20
:100D4A00010000F90180000000000090008C000002
:100D5A00000000D300D800FEFF00000401000000DC
:0E0D6A000011035006BD02E602CD0206030092
:00000001FF
